:100000000C9465000C948D000C948D000C944F01A1
:100010000C948D000C948D000C948D000C948D002C
:100020000C948D000C948D000C948D000C948D001C
:100030000C948D000C948D000C948D000C948D000C
:100040000C94970D0C948D000C94C5100C94F71023
:100050000C948D000C948D000C948D000C948D00EC
:100060000C940B090C948D000000000800020100A4
:100070000003040700000000000000000102040863
:100080001020408001020408102001020408102002
:10009000040404040404040402020202020203032E
:1000A00003030303000000002300260029000000D2
:1000B0000000250028002B0000000000240027007D
:1000C0002A00AD0329084A0A271111241FBECFEFC9
:1000D000D8E0DEBFCDBF11E0A0E0B1E0EEEBF9E289
:1000E00002C005900D92A238B107D9F723E0A2E82B
:1000F000B1E001C01D92A832B207E1F710E0CAECEE
:10010000D0E004C02297FE010E949713C23CD107A1
:10011000C9F70E946B110C94DD140C940000EF924F
:10012000FF920F931F93CF93DF9300D0CDB7DEB72D
:100130007C01890187E090E04A8369830E947A11FB
:10014000DC0111961C921E92698114966C9314978F
:100150004A8112964C93129716961C921E921597EE
:10016000E62FF0E0E458FF4FE4911396EC931397D9
:10017000009729F1F701268137812115310519F4FE
:10018000978386830AC0F90185819681009711F0D3
:100190009C01F9CFF901B683A58311961C930E93A8
:1001A00080916800F7019481892B809368002281F7
:1001B0003381F901808113969C91892B80830F9064
:1001C0000F90DF91CF911F910F91FF90EF900895C5
:1001D0009B01E82FF0E0E057FF4FE491EE2379F028
:1001E0006115710561F0E091B201F091B301908168
:1001F0009093B701682F82EB91E00C948F000895E3
:10020000FF920F931F93CF93DF938C019091BC01CA
:10021000D80115968C91159789271296ED91FC912E
:100220001397F080F82215969C9315971696CD910A
:10023000DC911797209731F18B819F2D9823F1F056
:100240009A81913069F0933029F49091BC01982300
:1002500039F414C0923091F49091BC01982371F458
:100260009091BC01982381E009F480E08093BA0169
:100270008C818093BB01E881F98109950D80DE8135
:10028000C02DD8CF8BB3F801948189238BBB81110A
:10029000BDCFDF91CF911F910F91FF9008951F92D5
:1002A0000F920FB60F9211242F933F934F935F93AA
:1002B0006F937F938F939F93AF93BF93EF93FF932E
:1002C000E091B201F091B30180818093BC0182EB97
:1002D00091E00E940001FF91EF91BF91AF919F913A
:1002E0008F917F916F915F914F913F912F910F90DF
:1002F0000FBE0F901F9018950F931F93CF93DF930E
:100300001F92CDB7DEB78C0179830E94CF1479811B
:10031000672FC80101960F90DF91CF911F910F9128
:100320000C94CF141F93CF93DF93EC010E94C7145A
:10033000182FCE0101960E94C714282F30E0922F6B
:100340008827810F911DDF91CF911F9108950F9301
:100350001F93CF93DF938C01C0E0D0E0C017D1078B
:1003600034F488EE93E00E942C0E2196F7CFDF91B3
:10037000CF911F910F91089582E390E00E94A70111
:1003800080919001882351F01092900161E085E006
:100390000E944E0F81E080938F01089581E0809349
:1003A000900180938E01089582E390E00E94A7015E
:1003B00080919001882379F080918C0190918D013A
:1003C000019690938D0180938C01489724F01092B0
:1003D0008D0110928C01089582E390E00E94A701A4
:1003E00080919001882389F080918C0190918D01FA
:1003F000019790938D0180938C0197FF06C087E150
:1004000090E090938D0180938C01089582E390E0B9
:100410000E94A70180919001882379F080918A0140
:1004200090918B01019690938B0180938A01CC97D8
:1004300024F010928B0110928A01089582E390E0DB
:100440000E94A70180919001882389F080918A0100
:1004500090918B01019790938B0180938A0197FF74
:1004600006C08BE390E090938B0180938A010895FE
:100470004F925F926F927F929F92AF92BF92CF9274
:10048000DF92EF92FF920F931F93CF93DF932B0195
:100490006CE070E00E941213EC01662457FC60943B
:1004A000762C1F921F921F924AE0942E9F92A12CAD
:1004B000B12C65011CE3E12EF12C00E010E020E0FE
:1004C00030E0A901C301B2010E94AE129C9E9001CE
:1004D0009D9E300D1124260F371FB90165507109FB
:1004E0000F900F900F900F9077FF08C0B90137FF62
:1004F00003C07195619571096D587F4F882777FD0D
:100500008095982F1F921F921F92CFEFCF93A12C0F
:10051000B12C650118E7E12EF12C00E010E020E09D
:1005200030E0A9010E94AE1283E00E948D0E1F925E
:100530001F921F92CF931CE3E12EF12C00E010E0FC
:1005400020E030E0A901C301B2010E94AE122DB734
:100550003EB7285F3F4F0FB6F8943EBF0FBE2DBF8A
:1005600086E0DF91CF911F910F91FF90EF90DF9088
:10057000CF90BF90AF909F907F906F905F904F9083
:100580000C948D0EAF92BF92CF92DF92EF92FF92BA
:100590000F931F93CF93DF93CDB7DEB727970FB697
:1005A000F894DEBF0FBECDBFCE0101960E94A50A12
:1005B0008823B9F02B818A8190E034E6239F800D57
:1005C000911D11242091930130919401821793077A
:1005D00044F411E0209191013091920128173907DC
:1005E0000CF010E08EE00E94700EE0909701F09009
:1005F00098018E159F0554F5112341F12091950125
:10060000309196012817390714F061E020C00027C7
:10061000F7FC0095102F442737FD4095542FBC015F
:10062000882777FD8095982F1F921F921F92ECEDDF
:10063000EF93A12CB12C65010E94AE1285E00E94BF
:100640008D0E0F900F900F900F9004C060E085E02A
:100650000E944E0F27960FB6F894DEBF0FBECDBF97
:10066000DF91CF911F910F91FF90EF90DF90CF908E
:10067000BF90AF900895CF93DF93EC018A3091053E
:1006800058F4E0919901F0919A010190F081E02DE8
:1006900060E389E991E009954AE050E0BE0189E90B
:1006A00091E0DF91CF910C946A12CF93DF93CDB795
:1006B000DEB727970FB6F894DEBF0FBECDBFCE01D1
:1006C00001960E94A50A882399F06A81809183018E
:1006D000681771F070E08B8190E00E94380287E02B
:1006E000FE013196A2E8B1E001900D928A95E1F702
:1006F00089E991E00E94890B40E064E089E991E09A
:100700000E94A00B8B8190E00E943B03E091990135
:10071000F0919A010190F081E02D6AE389E991E07E
:1007200009958A8190E00E943B03E0919901F09144
:100730009A010190F081E02D6AE389E991E0099541
:10074000898190E00E943B0327960FB6F894DEBFA4
:100750000FBECDBFDF91CF9108958F92AF92CF9210
:10076000EF920F93E8EAF0E0859194919093B301B2
:100770008093B2018BE690E09093B5018093B40131
:1007800081E08093B6011092B9011092B8011F92D6
:100790001F9283E08F9367E0862E76E0A72EE5E038
:1007A000CE2EF4E0EF2E00E021E042E067E289E99E
:1007B00091E00E94EE0C0F900F900F900F91EF9030
:1007C000CF90AF908F900895CF93DF9387E892E01A
:1007D0000E94860F892BD1F387E892E00E949F0F39
:1007E00090ED980F9A3018F08FEF9FEF53C0992734
:1007F00087FD9095C0972AE0289FE001299FD00DA2
:10080000112487E892E00E94860F892BD1F387E8B4
:1008100092E00E949F0F90ED980F9A3028F7992749
:1008200087FD9095C0978C0F9D1F2AE0289FE001BF
:10083000299FD00D112487E892E00E94860F892B12
:10084000D1F387E892E00E949F0F90ED980F9A30C5
:1008500058F6992787FD9095C0978C0F9D1F2AE029
:10086000289FE001299FD00D112487E892E00E9483
:10087000860F892BD1F387E892E00E949F0F90EDBD
:10088000980F9A3008F0B0CF992787FD9095C097C0
:100890008C0F9D1FDF91CF910895EF92FF920F93E0
:1008A0001F93CF93DF93CDB7DEB727970FB6F8949A
:1008B000DEBF0FBECDBF87E892E00E94860F892B76
:1008C000D1F387E892E00E949F0FC0978A3091058C
:1008D00030F42AE0289F8001299F100D112487E819
:1008E00092E00E94860F892BD1F387E892E00E9464
:1008F0009F0FC0978A30910510F4080F191FF02E32
:1009000087E892E00E94860F892BD1F387E892E076
:100910000E949F0FC0978A30910530F42AE0289FEB
:100920008001299F100D112487E892E00E94860F14
:10093000892BD1F387E892E00E949F0FC0978A30FD
:10094000910510F4080F191FE02E87E892E00E942D
:10095000860F892BD1F387E892E00E949F0FC09702
:100960008A30910530F42AE0289F8001299F100DDC
:10097000112487E892E00E94860F892BD1F387E843
:1009800092E00E949F0FC0978A30910510F4080FE3
:10099000191F5C816D817E81202F3E2D4F2D8F810F
:1009A00090E027960FB6F894DEBF0FBECDBFDF9163
:1009B000CF911F910F91FF90EF9008950F931F9388
:1009C000CF93DF93CDB7DEB727970FB6F894DEBF8E
:1009D0000FBECDBF80918901882309F440C04AE051
:1009E00050E064E070E087E892E00E947212CE016D
:1009F00001960E94A50A4AE050E08823A1F06B818D
:100A000087E892E00E9497124AE050E06A8187E806
:100A100092E00E9497124AE050E0698187E892E0F4
:100A20000E94971216C06FEF7FEF87E892E00E9456
:100A300072124AE050E06FEF7FEF87E892E00E9489
:100A400072124AE050E06FEF7FEF87E892E00E9479
:100A5000721264E670E080E090E00E94040E8091E3
:100A60008E01882391F010928E01CE0101960E9492
:100A7000A50A8B8190E090938D0180938C018A81EF
:100A800090E090938B0180938A0180918F0188235D
:100A900081F010928F0180918C018B8380918A016B
:100AA0008A83CE0101960E944E0A89E991E00E9454
:100AB000990B809190018823F1F161E085E00E941B
:100AC0004E0F60918A0170918B0180918C01909101
:100AD0008D010E94380289E991E00E94810B41E07A
:100AE00060E089E991E00E94A00B80918C019091D7
:100AF0008D010E943B03E0919901F0919A010190D0
:100B0000F081E02D6AE389E991E0099580918A01FD
:100B100090918B010E943B03E0919901F0919A0121
:100B20000280F381E02D4AE050E06BE071E089E95A
:100B300091E00995D0C087E892E00E94860F1816D0
:100B400019060CF0C4C087E892E00E949F0F83331F
:100B5000910509F44FC0ACF481339105D1F0C297EF
:100B600009F0B5C04AE050E062E070E087E892E04A
:100B70000E9472128EE00E94700E4AE050E0BC01AA
:100B800034C08433910509F488C0C59709F48CC03A
:100B90009EC04AE050E061E070E087E892E00E9489
:100BA000721260919701709198014AE050E087E8D5
:100BB00092E00E94721260919501709196014AE054
:100BC00050E087E892E00E94721260919301709168
:100BD00094014AE050E087E892E00E94721260912E
:100BE0009101709192014AE050E087E892E00E9402
:100BF00072126DC087E892E00E94860F892BD1F3B4
:100C00000E94E4038C01909398018093970180E007
:100C100090E00E9492010817190729F0B80180E0BE
:100C200090E00E947C010E94E4038C019093960165
:100C30008093950182E090E00E94920108171907C5
:100C400029F0B80182E090E00E947C010E94E40358
:100C50008C01909394018093930184E090E00E9432
:100C600092010817190729F0B80184E090E00E946A
:100C70007C010E94E4038C01909392018093910186
:100C800086E090E00E9492010817190701F1B8016F
:100C900086E090E00E947C011AC08091890191E079
:100CA00089278093890113C087E892E00E94860F0C
:100CB000892BD1F30E944D0429833A834B835C83B3
:100CC0006D837E838F83CE0101960E944E0A0E941F
:100CD00055030E94C20227960FB6F894DEBF0FBEDE
:100CE000CDBFDF91CF911F910F91089580E090E0EB
:100CF0000E9492019093980180939701019661F46C
:100D000082E593E0909398018093970162E573E008
:100D100080E090E00E947C0182E090E00E949201DD
:100D20009093960180939501019661F488E592E095
:100D3000909396018093950168E572E082E090E0DF
:100D40000E947C0184E090E00E94920190939401C3
:100D500080939301019661F488E998E0909394015F
:100D60008093930168E978E084E090E00E947C0140
:100D700086E090E00E9492018F3F2FEF920729F0CA
:100D800090939201809391010CC08CEB92E0909330
:100D90009201809391016CEB72E086E090E00E94FA
:100DA0007C0160E08EE00E94150F61E085E00E940A
:100DB000150F61E083E00E94150F61E086E00E945C
:100DC000150F62E08DE00E94150F42E050E064EDE7
:100DD00071E08DE00E94E80062E08CE00E94150F57
:100DE00042E050E06CEE71E08CE00E94E80062E0CE
:100DF0008BE00E94150F42E050E066E072E08BE06D
:100E00000E94E80062E08AE00E94150F42E050E094
:100E10006EE172E08AE00E94E80062E089E00E94F0
:100E2000150F42E050E06CEB71E089E00E94E800B1
:100E300061E085E00E944E0F26E040E855E260E068
:100E400070E087E892E00E94691020E042E060E1F3
:100E500089E991E00E947C0D89E991E00E94810B73
:100E600040E060E089E991E00E94A00B66E171E05A
:100E700089E991E00E94BA1141E060E089E991E0DE
:100E80000E94A00B67E271E089E991E00E94BA112B
:100E900060ED77E080E090E00E94040E89E991E047
:100EA0000E94890B89E991E00C94990B8091ED01E6
:100EB00090E02091EE01821B910908952091EE01AE
:100EC0008091ED01281750F4E22FF0E0E151FE4F40
:100ED000808190E02F5F2093EE0108958FEF9FEFC8
:100EE0000895E091EE018091ED01E81730F4F0E013
:100EF000E151FE4F808190E008958FEF9FEF0895BC
:100F00000895CF92DF92EF92FF920F931F93CF93AA
:100F1000DF937C01CB018A012091C901222389F052
:100F2000EB016B01C40ED51ECC15DD0569F069918E
:100F3000D701ED91FC910190F081E02DC701099559
:100F4000F3CF642F0E94E208C801DF91CF911F9177
:100F50000F91FF90EF90DF90CF900895CF93DF93A4
:100F60001F92CDB7DEB769832091C9012223D1F04A
:100F70002091CA01203240F021E030E0FC013383AF
:100F8000228380E090E015C08091CB01E82FF0E053
:100F9000E453FE4F998190838F5F8093CB018093C0
:100FA000CA0105C061E0CE0101960E94E20881E01D
:100FB00090E00F90DF91CF910895FC01138212828F
:100FC00048EE53E060E070E04483558366837783A6
:100FD00087E391E09183808308951092EE0110924F
:100FE000ED011092CB011092CA010C942D08862FAE
:100FF000413208F040E26FEE71E00E944B0810921F
:10100000EE018093ED01089521E00C94F70781E053
:101010008093C9016093EC011092CB011092CA0138
:1010200008950C9407080F93062F21E04091CA0100
:101030006CEC71E08091EC010E948F081092CB0162
:101040001092CA011092C9010F91089561E00C94A9
:1010500013088DEB91E00C94DD0710927C0281E087
:1010600080937A021092790261E082E10E944E0F31
:1010700061E083E10E944E0FE9EBF0E080818E7F1A
:10108000808380818D7F808380E28093B80085E4B7
:101090008093BC000895413208F03FC090917C02DB
:1010A0009111FCCF91E090937C0220937A022FEF74
:1010B00020930F0210925402240F20935302909316
:1010C0007B0290917B02880F892B80937B02809119
:1010D0007902813041F41092790280917B028093F1
:1010E000BB0085EC01C085EE8093BC0080917C0242
:1010F0008130E1F380915402841710F4409154023E
:1011000025E532E0FB01D9018A2F821B841718F4F0
:101110008D918193F9CF842F089580E008950F93E6
:10112000413208F046C090917C029111FCCF92E0D0
:1011300090937C0200937A029FEF90930F0210929B
:10114000540240935302FB0165E572E0DB019A2FE4
:10115000961B941718F491919D93F9CF10927B02EE
:1011600090917B02880F892B80937B02809179027A
:10117000813041F41092790280917B028093BB0010
:1011800085EC01C085EE8093BC00222321F0809184
:101190007C028230E1F380910F028F3F61F08091F9
:1011A0000F02803251F080910F02803341F483E0CE
:1011B00007C081E005C080E003C082E001C084E098
:1011C0000F910895613298F420917C02243089F4C3
:1011D00060933102FC0183E392E0DC012A2F281B9B
:1011E000261718F421912D93F9CF80E0089581E01E
:1011F000089582E0089585ED8093BC008091BC0045
:1012000084FDFCCF10927C02089585EC8093BC0095
:1012100010927C0208951F920F920FB60F92112424
:101220002F933F934F935F936F937F938F939F93EE
:10123000AF93BF93EF93FF938091B900887F80367F
:1012400009F49CC068F5883209F45BC090F48031E1
:1012500009F454C038F4882309F4F5C0883009F43F
:101260004DC0F5C0883109F44CC0803209F45DC02E
:10127000EEC0803409F468C048F4803309F455C0E6
:10128000883309F0E4C080930F02A8C0803509F4C8
:101290004FC0883509F45DC0883409F0D8C0D5C086
:1012A000883909F4C6C0A8F4883709F467C038F44F
:1012B000883609F463C0803709F460C0C8C0883834
:1012C00009F4B7C0803909F45FC0803809F0BFC0A5
:1012D0005BC0803B09F485C038F4803A09F466C0ED
:1012E000883A09F47EC0B3C0803C09F4A6C0883CAB
:1012F00009F4A3C0883B09F489C0A9C080917B028E
:1013000010C09091540280915302981770F5E091AB
:10131000540281E08E0F80935402F0E0EB5AFD4FAF
:1013200080818093BB0085EC85C080930F028DC0C7
:10133000E091540281E08E0F809354028091BB00B3
:10134000F0E0EB5AFD4F808390915402809153025C
:101350006DC0E091540281E08E0F80935402809121
:10136000BB00F0E0EB5AFD4F808380917A0281113F
:101370006CC081E08093790284EA60C083E080934E
:101380007C0210921002CFCF80911002803208F0C0
:1013900050C0E091100281E08E0F80931002809186
:1013A000BB00F0E0EF5EFD4F8083BDCF8091100267
:1013B000803230F4E0911002F0E0EF5EFD4F1082D9
:1013C0000E94FB086091100270E0E0917502F091BC
:1013D000760281E192E00995109210020E940509BF
:1013E00036C084E080937C02109232021092310267
:1013F000E0917702F0917802099580913102811194
:1014000005C081E08093310210923302E0913202F4
:1014100081E08E0F80933202F0E0ED5CFD4F808121
:101420008093BB009091320280913102981708F4AA
:101430007ACF85E88093BC000AC085EC8093BC001D
:1014400010927C0204C010920F020E94FB08FF91D0
:10145000EF91BF91AF919F918F917F916F915F912C
:101460004F913F912F910F900FBE0F901F901895A5
:101470006AE00E94061320E1829F900D1124892FBB
:101480000895982F92959F708F702AE0929F800DFB
:10149000112408958DEB91E00C94ED07CF93DF9329
:1014A000EC0168E670E08DEB91E00E94110860E0CD
:1014B0008DEB91E00E94AE0788810E94380A682F68
:1014C0008DEB91E00E94AE0789810E94380A682F57
:1014D0008DEB91E00E94AE078A810E94380A682F46
:1014E0008DEB91E00E94AE078B810E94380A682F35
:1014F0008DEB91E00E94AE078C810E94380A682F24
:101500008DEB91E00E94AE078D810E94380A682F12
:101510008DEB91E00E94AE078E818E510E94380AB9
:10152000682F8DEB91E00E94AE078DEB91E00E9459
:101530002608882321F010927D0280E003C081E01C
:1015400080937D02DF91CF9108951F93CF93DF9316
:10155000EC0168E670E08DEB91E00E94110860E01C
:101560008DEB91E00E94AE078DEB91E00E94260882
:10157000882319F010927D024CC081E080937D0297
:1015800047E050E068E670E08DEB91E00E940408CF
:101590008DEB91E00E9456070797DCF18DEB91E00F
:1015A0000E945E07182F8F770E94410A88838DEB77
:1015B00091E00E945E070E94410A89838DEB91E0D1
:1015C0000E945E078F730E94410A8A838DEB91E02F
:1015D0000E945E070E94410A8B838DEB91E00E947E
:1015E0005E070E94410A8C838DEB91E00E945E07AA
:1015F0000E94410A8D838DEB91E00E945E070E945C
:10160000410A825E8E83812F8095881F8827881FDC
:1016100001C080E0DF91CF911F910895FC011282FB
:101620008FEF8183108213820895FC0183818823C8
:1016300031F0611103C08FEF818308951182089505
:101640008DEB91E00E9407088DEB91E00E94260847
:1016500091E0811190E0892F0895CF93DF93EC0101
:101660006A838DEB91E00E94ED076A81CE010E94B2
:10167000200B8B83882329F08DEB91E00E945E077D
:1016800088838B8190E0DF91CF910895CF93DF9392
:10169000EC018B818823A9F089818095862388833A
:1016A0006A818DEB91E00E94070868818DEB91E0E3
:1016B0000E94AE078DEB91E00E942608282F30E0B3
:1016C00002C020E030E081E090E0232B11F080E0C8
:1016D00090E0DF91CF91089508950895DC01ED9198
:1016E000FC910284F385E02D41E0099581E090E0D2
:1016F0000895FC011382128227E431E031832083B4
:101700000895DC01ED91FC910084F185E02D6FEFEF
:101710000994DC01ED91FC910084F185E02D60E0FD
:101720000994DC01ED91FC910284F385E02D40E009
:10173000099461E00E94910B80ED97E00C942C0ECF
:10174000CF93DF93CDB7DEB728970FB6F894DEBFFF
:101750000FBECDBF1D8220E42E8334E13F8334E5EC
:10176000388719822A8320E12B8320E52C83FC0112
:101770002781421710F04FEF420FFC01308550E0F7
:10178000FE01E40FF51F303121F4243011F42181E2
:1017900001C02581260F2068622F28960FB6F89485
:1017A000DEBF0FBECDBFDF91CF910C94910BFC013A
:1017B0006581262F246025836C600C94910BCF9358
:1017C000DF93EC01423018F08C8188608C834F836A
:1017D0006887222329F0413019F48C8184608C833E
:1017E00064E670E080E090E00E94040E6C8164FD8D
:1017F00031C0E881F9810284F385E02D42E063E0A5
:10180000CE01099584E991E10E942C0EE881F981CD
:101810000284F385E02D42E063E0CE01099586E97C
:1018200090E00E942C0EE881F9810284F385E02D7E
:1018300042E063E0CE01099586E990E00E942C0E1B
:10184000E881F9810284F385E02D42E062E0CE0177
:10185000099516C06062CE010E94910B84E991E166
:101860000E942C0E6C816062CE010E94910B86E971
:1018700090E00E942C0E6C816062CE010E94910B60
:1018800086E990E00E942C0E6C816062CE010E947D
:10189000910B8CE390E00E942C0E84E08D83CE01AE
:1018A0000E94D70BCE010E94990B82E08E8366E0E6
:1018B000CE010E94910BCE01DF91CF910C94810B50
:1018C00021E001C0220F6A95EAF7DC011C962C93F7
:1018D0001C971A965C934E931997ED91FC91008496
:1018E000F185E02D60E00994FC012485222399F024
:1018F00081859285009719F4611105C006C0019792
:1019000021F4611102C0258701C015866585CF01CC
:101910000E960C94460B08950F931F93CF93DF936D
:10192000EC018C01025F1F4F6B85C8010E942D0BDB
:10193000019761F461E0C8010E94150B1C8260E010
:10194000C8010E94460B81E090E002C080E090E078
:10195000DF91CF911F910F9108958F92AF92CF9207
:10196000EF920F93CF93DF93CDB7DEB7FC01638780
:10197000148615861286118681E0982F01C0990F72
:101980004A95EAF7928B982F01C0990F2A95EAF7AA
:10199000938B982F01C0990F0A95EAF7948B982F93
:1019A00001C0990FEA94EAF7958B982F01C0990F1F
:1019B000CA94EAF7968B982F01C0990FAA94EAF778
:1019C000978B01C0880F8A94EAF7808FDF91CF91BF
:1019D0000F91EF90CF90AF908F9008954F925F92BC
:1019E0006F927F928F92AF92CF92EF920F931F934D
:1019F000CF93DF9300D01F92CDB7DEB73C011A8999
:101A00004B885C882B834A8369830E94790B87E526
:101A100091E0F30191838083C3010E960E940E0B27
:101A20002B814A816981C3010E94AD0CA201612F03
:101A3000C3010F900F900F90DF91CF911F910F91E5
:101A4000EF90CF90AF908F907F906F905F904F907E
:101A50000C94600CFF920F931F93CF93DF93EC01D4
:101A6000F62E8C01025F1F4F6A896F29C8010E9400
:101A7000460B6A8960956F21C801DF91CF911F9154
:101A80000F91FF900C94460B20E030E050E060FF97
:101A900005C0FC01E20FF31F7589572B66952F5F78
:101AA0003F4F2430310599F7413011F4FC0144894E
:101AB000FC016585652B642B0C942A0D0F931F93F5
:101AC000CF93DF93EC01142F062F0F70423011F4E7
:101AD00040E00AC070E084E0759567958A95E1F76B
:101AE000CE010E94440D412F602FCE01DF91CF9196
:101AF0001F910F910C94440D0F931F93CF93DF937D
:101B000000D01F92CDB7DEB78C012B834A83698347
:101B10000E948C0C2B814A816981C8010F900F9023
:101B20000F90DF91CF911F910F910C94DF0B1F92BB
:101B30000F920FB60F9211242F933F938F939F9381
:101B4000AF93BF9380917F0290918002A091810218
:101B5000B091820230917E0226E0230F2D3720F4CF
:101B60000296A11DB11D05C029E8230F0396A11DF2
:101B7000B11D20937E0280937F0290938002A093F8
:101B80008102B09382028091830290918402A0919D
:101B90008502B09186020196A11DB11D809383023A
:101BA00090938402A0938502B0938602BF91AF9177
:101BB0009F918F913F912F910F900FBE0F901F908B
:101BC00018953FB7F8948091830290918402A09178
:101BD0008502B091860226B5A89B05C02F3F19F05B
:101BE0000196A11DB11D3FBF6627782F892F9A2F1F
:101BF000620F711D811D911D43E0660F771F881FC5
:101C0000991F4A95D1F70895CF92DF92EF92FF92F4
:101C1000CF93DF936B017C010E94E10DEB01C114B6
:101C2000D104E104F10489F00E94F5120E94E10D53
:101C30006C1B7D0B683E734090F381E0C81AD1089D
:101C4000E108F108C851DC4FEACFDF91CF91FF9056
:101C5000EF90DF90CF9008958330910528F0880FA2
:101C6000991F04970197F1F70895789484B58260DD
:101C700084BD84B5816084BD85B5826085BD85B530
:101C8000816085BDEEE6F0E0808181608083E1E8DF
:101C9000F0E0108280818260808380818160808317
:101CA000E0E8F0E0808181608083E1EBF0E080811A
:101CB00084608083E0EBF0E0808181608083EAE7EC
:101CC000F0E0808184608083808182608083808175
:101CD0008E7F80838081806880831092C100089508
:101CE0008E3008F08E50877020910A0190E4299F71
:101CF00090011124822B80937C0080917A00806473
:101D000080937A0080917A0086FDFCCF80917800E4
:101D10002091790090E0922B08951F93CF93DF9349
:101D2000182FEB0161E00E94150F209711F460E07D
:101D300004C0CF3FD10539F461E0812FDF91CF910D
:101D40001F910C944E0FE12FF0E0E859FF4FE49102
:101D5000E330F9F048F4E130B9F0E230A1F584B5B0
:101D6000806284BDC8BD34C0E730E9F0E83019F1C5
:101D7000E43049F580918000806280938000D093A8
:101D80008B00C0938A0024C084B5806884BDC7BD21
:101D90001FC080918000806880938000D09389006C
:101DA000C093880015C08091B00080688093B00017
:101DB000C093B3000DC08091B00080628093B000EA
:101DC000C093B40005C0C038D1050CF0B5CFAFCF7B
:101DD000DF91CF911F910895833081F028F48130F5
:101DE00099F08230A1F008958730A9F08830B9F0D9
:101DF0008430D1F4809180008F7D03C08091800079
:101E00008F7780938000089584B58F7702C084B562
:101E10008F7D84BD08958091B0008F7703C080913D
:101E2000B0008F7D8093B0000895CF93DF9390E052
:101E3000FC01E458FF4F2491FC01E057FF4F8491CF
:101E4000882349F190E0880F991FFC01E854FF4F67
:101E5000A591B49182559F4FFC01C591D4919FB734
:101E6000611108C0F8948C91209582238C9388810D
:101E700082230AC0623051F4F8948C91322F30954D
:101E800083238C938881822B888304C0F8948C915F
:101E9000822B8C939FBFDF91CF9108950F931F9357
:101EA000CF93DF931F92CDB7DEB7282F30E0F90133
:101EB000E859FF4F8491F901E458FF4F1491F9015B
:101EC000E057FF4F04910023C9F0882321F0698374
:101ED0000E94EC0E6981E02FF0E0EE0FFF1FE2554B
:101EE000FF4FA591B4919FB7F8948C91611103C0F5
:101EF0001095812301C0812B8C939FBF0F90DF91A0
:101F0000CF911F910F9108950E94C214FC01818D01
:101F1000228D90E0805C9F4F821B91098F739927DF
:101F20000895FC01918D828D981731F0828DE80F14
:101F3000F11D858D90E008958FEF9FEF0895FC01CE
:101F4000918D828D981761F0828DDF01A80FB11DF0
:101F50005D968C91928D9F5F9F73928F90E0089514
:101F60008FEF9FEF08958DE191E1892B49F080E09B
:101F700090E0892B29F00E941D1181110C94000022
:101F80000895FC01848DDF01A80FB11DA35ABF4F36
:101F90002C91848D90E001968F739927848FA68968
:101FA000B7892C93A089B1898C9180648C93938D8F
:101FB000848D981306C00288F389E02D80818F7D7F
:101FC00080830895CF93DF93EC01888D8823C9F037
:101FD000EA89FB89808185FD05C0A889B9898C9132
:101FE00086FD0FC00FB607FCF5CF808185FFF2CFCD
:101FF000A889B9898C9185FFEDCFCE010E94C10FD0
:10200000E7CFDF91CF910895CF92DF92FF920F93A8
:102010001F93CF93DF931F92CDB7DEB76C0181E0A2
:10202000D60158968C9358975B969C915B975C96DB
:102030008C915C97981307C05096ED91FC91519745
:10204000808185FD2EC0F601038D10E00F5F1F4FCC
:102050000F731127F02EF601848DF81211C00FB600
:1020600007FCF9CFD6015096ED91FC9151978081F4
:1020700085FFF1CFC60169830E94C10F6981EBCF53
:10208000838DE80FF11DE35AFF4F6083D6015B9605
:102090000C935B975296ED91FC91539780818062EF
:1020A0000CC0D6015696ED91FC91579760835096DF
:1020B000ED91FC91519780818064808381E090E074
:1020C0000F90DF91CF911F910F91FF90DF90CF90F4
:1020D0000895BF92CF92DF92EF92FF92CF93DF935A
:1020E000EC016A017B01B22E60E874E88EE190E0B9
:1020F000A70196010E942613215031094109510977
:102100005695479537952795E889F98982E0808328
:10211000211580E1380798F0E889F989108260E498
:1021200072E48FE090E0A70196010E9426132150EF
:102130003109410951095695479537952795EC8501
:10214000FD853083EE85FF852083188EEC89FD891F
:10215000B082EA89FB89808180618083EA89FB897A
:10216000808188608083EA89FB89808180688083A0
:10217000EA89FB8980818F7D8083DF91CF91FF90F9
:10218000EF90DF90CF90BF9008951F920F920FB6FF
:102190000F9211242F938F939F93EF93FF93E091CE
:1021A0009702F09198028081E0919D02F0919E0249
:1021B00082FD12C090818091A0028F5F8F73209169
:1021C000A102821751F0E091A002F0E0E957FD4F23
:1021D000958F8093A00201C08081FF91EF919F9124
:1021E0008F912F910F900FBE0F901F9018951F92F7
:1021F0000F920FB60F9211242F933F934F935F933B
:102200006F937F938F939F93AF93BF93EF93FF93BE
:1022100087E892E00E94C10FFF91EF91BF91AF91CB
:102220009F918F917F916F915F914F913F912F91EE
:102230000F900FBE0F901F90189587E892E00E94B4
:10224000860F21E0892B09F420E0822F0895109257
:102250008A021092890288EE93E0A0E0B0E08093B9
:102260008B0290938C02A0938D02B0938E0287E62E
:1022700091E0909388028093870285EC90E09093A0
:1022800094028093930284EC90E090939602809362
:10229000950280EC90E0909398028093970281ECF5
:1022A00090E090939A028093990282EC90E0909350
:1022B0009C0280939B0286EC90E090939E02809318
:1022C0009D021092A0021092A1021092A2021092FE
:1022D000A302089508950E94350E0E946A110E947B
:1022E0007606C3EBDFE00E94DE042097E1F30E9454
:1022F000B30FF9CF0C949B13CF92DF92EF92FF9222
:102300000F931F93CF93DF936C017A01EB01E60EDD
:10231000F71E00E010E0CE15DF0561F06991D601EF
:10232000ED91FC910190F081E02DC6010995080F17
:10233000191FF1CFC801DF91CF911F910F91FF902D
:10234000EF90DF90CF9008956115710581F0DB016A
:102350000D900020E9F7AD0141505109461B570B84
:10236000DC01ED91FC910280F381E02D099480E085
:1023700090E008950C94A411DC01ED91FC91019082
:10238000F081E02D099463E771E00C94A4118F9221
:102390009F92AF92BF92CF92DF92EF92FF920F93F4
:1023A0001F93CF93DF93CDB7DEB7A1970FB6F89405
:1023B000DEBF0FBECDBF7C01C42EE52FCB01D22ED8
:1023C00019A221E02D1510F02AE0D22E8E010F5D0A
:1023D0001F4F8D2C912CA12CB12C6C2D7E2FA50183
:1023E00094010E9426138C2DD29E80191124015035
:1023F00011098A3014F4805D01C0895CF801808382
:10240000211531054105510521F0C22EE32FCA01E6
:10241000E4CFB801C7010E94A411A1960FB6F894A9
:10242000DEBF0FBECDBFDF91CF911F910F91FF9007
:10243000EF90DF90CF90BF90AF909F908F900895D6
:10244000CF92DF92EF92FF920F931F93CF93DF9380
:10245000EC016A017B012115310579F4E881F981EC
:102460000190F081E02D642FDF91CF911F910F91AA
:10247000FF90EF90DF90CF9009942A303105E9F476
:1024800077FF1AC06DE20E94BC118C0144275527CA
:10249000BA014C195D096E097F092AE0CE010E943C
:1024A000C711800F911FDF91CF911F910F91FF9066
:1024B000EF90DF90CF9008952AE0B701A601CE01FA
:1024C000DF91CF911F910F91FF90EF90DF90CF9010
:1024D0000C94C7119A01AB01662757FD6095762FC2
:1024E0000C9420120F931F93CF93DF93EC019A016A
:1024F000AB01662757FD6095762F0E9420128C0154
:10250000CE010E94C311800F911FDF91CF911F91C7
:102510000F9108952115310541F4DC01ED91FC91F5
:102520000190F081E02D642F09940C94C7110F9352
:102530001F93CF93DF93EC019A01462F50E060E0A8
:1025400070E00E948A128C01CE010E94C311800F9C
:10255000911FDF91CF911F910F9108954F925F923C
:102560006F927F92AF92BF92CF92DF92EF92FF92E3
:102570000F931F93CF93DF93CDB7DEB729013A01B5
:10258000621B730B840B950B29893A894B895C89F3
:102590002A193B094C095D09298B3A8B4B8B5C8BC3
:1025A0009B01AC0169897A898B899C890E94F6120A
:1025B000E418F50806091709A80197010E944813B5
:1025C0002A0D3B1D4C1D5D1DCA01B901DF91CF9144
:1025D0001F910F91FF90EF90DF90CF90BF90AF9041
:1025E0007F906F905F904F9008950895DB018F93D7
:1025F0009F930E947613BF91AF91A29F800D911D72
:10260000A39F900DB29F900D11240895991B79E01E
:1026100004C0991F961708F0961B881F7A95C9F772
:102620008095089597FB072E16F4009407D077FD48
:1026300009D00E94811307FC05D03EF49095819546
:102640009F4F0895709561957F4F0895A1E21A2ECE
:10265000AA1BBB1BFD010DC0AA1FBB1FEE1FFF1F46
:10266000A217B307E407F50720F0A21BB30BE40B96
:10267000F50B661F771F881F991F1A9469F76095DD
:102680007095809590959B01AC01BD01CF01089597
:10269000052E97FB1EF400940E945F1357FD07D090
:1026A0000E94261307FC03D04EF40C945F13509540
:1026B0004095309521953F4F4F4F5F4F089590952E
:1026C0008095709561957F4F8F4F9F4F0895A29F82
:1026D000B001B39FC001A39F700D811D1124911DF6
:1026E000B29F700D811D1124911D08950E946713E2
:1026F000A59F900DB49F900DA49F800D911D112456
:102700000895AA1BBB1B51E107C0AA1FBB1FA61738
:10271000B70710F0A61BB70B881F991F5A95A9F78A
:1027200080959095BC01CD010895EE0FFF1F059097
:10273000F491E02D0994CF93DF938230910510F44A
:1027400082E090E0E0912603F091270320E030E062
:10275000A0E0B0E0309739F1408151814817590726
:10276000B8F04817590771F482819381109729F0C6
:1027700013969C938E9312972CC09093270380936B
:10278000260327C02115310531F04217530718F0F1
:10279000A901DB0101C0EF019A01BD01DF01028047
:1027A000F381E02DD7CF21153105F9F0281B390B26
:1027B0002430310580F48A819B816115710521F0F7
:1027C000FB019383828304C09093270380932603A5
:1027D000FE01329644C0FE01E20FF31F81939193F4
:1027E00022503109398328833AC020912403309143
:1027F0002503232B41F420910201309103013093F2
:10280000250320932403209100013091010121151B
:10281000310541F42DB73EB74091040150910501B7
:10282000241B350BE0912403F0912503E217F307F5
:10283000A0F42E1B3F0B2817390778F0AC014E5F30
:102840005F4F2417350748F04E0F5F1F5093250345
:10285000409324038193919302C0E0E0F0E0CF0124
:10286000DF91CF910895CF93DF93009709F487C04C
:10287000FC01329713821282C0912603D091270364
:10288000209781F420813181280F391F8091240302
:10289000909125038217930779F5F0932503E09330
:1028A00024036DC0DE0120E030E0AE17BF0750F416
:1028B00012964D915C9113979D014115510509F1B7
:1028C000DA01F3CFB383A28340815181840F951F36
:1028D0008A179B0771F48D919C911197840F951F16
:1028E00002969183808312968D919C911397938386
:1028F00082832115310529F4F0932703E093260301
:102900003EC0D9011396FC93EE9312974D915D91C1
:10291000A40FB51FEA17FB0779F480819181840F1A
:10292000951F0296D90111969C938E938281938173
:1029300013969C938E931297E0E0F0E08A819B813E
:10294000009719F0FE01EC01F9CFCE010296288123
:102950003981820F931F209124033091250328177A
:10296000390769F4309729F410922703109226034F
:1029700002C013821282D0932503C0932403DF91F7
:10298000CF91089581E090E0F8940C94DD14F999CA
:10299000FECF92BD81BDF89A992780B50895262F64
:1029A000F999FECF1FBA92BD81BD20BD0FB6F89434
:1029B000FA9AF99A0FBE01960895F894FFCF000095
:1029C0002803800001000000012053455420434C9F
:1029D0004F434B00496E69636A616C697A61636A4F
:1029E000612E2E2E007777772E626175722E706CB5
:1029F0000000000000AE07810756075E07710780E0
:102A000007000000006E0B7C11DF0B6C0B6D0B845C
:102A10000F000000006E0B7C117C0D600C740C5ECE
:102A20000D0000000004107C11860F9F0F910FE233
:102A30000F0D0A006E616E00696E66006F766600AB
:00000001FF
